:020000022000DC
:1070000000000420E1010500210205002302050023
:1070100025020500270205002902050000000000E6
:10702000000000000000000000000000D10005008A
:107030002D02050000000000F100050031020500EE
:107040003D040500330205003302050055A5030089
:1070500009A60300330205003302050033020500D0
:107060003302050033020500330205003302050038
:107070003302050033020500330205003302050028
:107080003302050021FE040033020500330205002F
:107090003302050033020500052204003302050017
:1070A00033020500330205003302050033020500F8
:1070B000330205003302050000000000000000005C
:1070C00033020500330205003302050051090500B3
:1070D000330205003302050033020500B1B203009C
:1070E00033020500330205003302050000000000F2
:1070F000000000003302050000000000C90905007F
:10710000000000000000000000000000000000007F
:10711000000000000000000000000000000000006F
:10712000000000000000000000000000000000005F
:10713000000000000000000000000000000000004F
:10714000000000000000000000000000000000003F
:10715000000000000000000000000000000000002F
:10716000000000000000000000000000000000001F
:10717000000000000000000000000000000000000F
:1071800000000000000000000000000000000000FF
:1071900000000000000000000000000000000000EF
:1071A00000000000000000000000000000000000DF
:1071B00000000000000000000000000000000000CF
:1071C00000000000000000000000000000000000BF
:1071D00000000000000000000000000000000000AF
:1071E000000000000000000000000000000000009F
:1071F000000000000000000000000000000000008F
:10720000F1EE103A43F08073E1EE103A704700BFA0
:1072100010B5054C237833B9044B13B10448AFF3D0
:1072200000800123237010BDF069002000000000E1
:10723000F432060008B5034B1BB103490348AFF312
:10724000008008BD00000000F4690020F432060050
:10725000154B002B08BF134B9D46A3F5803A002128
:107260008B460F461348144A121A32F06FFC0F4B2C
:10727000002B00D098470E4B002B00D098470020E1
:10728000002104000D000D48002802D00C48AFF387
:10729000008032F0F1FB2000290028F0F9FF32F0E5
:1072A000C5FB00BF00000800000004200000000033
:1072B00000000000F069002054C000200000000021
:1072C00000000000024B034AC3F80026704700BFCD
:1072D000000001403546526E704700BF08494A68B9
:1072E00012F0010F034600EB620007D010B45410F7
:1072F0001A590B685DF8044BD35818470B681847A8
:107300000C6A002010B50446406808B129F006F860
:10731000204610BD10B50446D0F8B00008B128F0E2
:10732000FDFFD4F8A40008B128F0F8FF04F11C0018
:107330001DF0D0F8204610BD10B50446183026F0D8
:1073400029FA04F10C0026F025FA204626F022FA4C
:10735000204610BD38B5054CA4F59A751C3C201D7F
:1073600026F018FAAC42F9D138BD00BF486B0020B6
:10737000084626F07BBC00BF084626F05DBC00BF77
:107380000846114633F068BAF8B5054600F5CD64F5
:1073900000F28C6600F25C6730460C3E26F0FAF98B
:1073A000B742F9D105F5C7660C3C204626F0F2F944
:1073B000A642F9D105F5C1640C3E304626F0EAF943
:1073C000B442F9D105F5BB660C3C204626F0E2F943
:1073D000B442F9D105F5B5640C3E304626F0DAF931
:1073E000A642F9D105F5AF660C3C204626F0D2F94D
:1073F000A642F9D105F5A9640C3E304626F0CAF93B
:10740000B442F9D105F5A3660C3C204626F0C2F93A
:10741000B442F9D105F59D640C3E304626F0BAF928
:10742000A642F9D105F597660C3C204626F0B2F944
:10743000A642F9D105F591640C3E304626F0AAF932
:10744000B442F9D105F58B660C3C204626F0A2F932
:10745000B442F9D105F57B7605F24C4405F5787711
:1074600020460C3C26F096F9BC42F9D105F56F7424
:107470000C3E304626F08EF9A642F9D105F563762A
:107480000C3C204626F086F9B442F9D105F5577434
:107490000C3E304626F07EF9B442F9D105F54B7624
:1074A0000C3C204626F076F9A642F9D105F53F744A
:1074B0000C3E304626F06EF9A642F9D105F530763D
:1074C0000C3C204626F066F9A642F9D105F52D7050
:1074D00026F060F905F5267026F05CF9281D24F0E9
:1074E00073FF2846F8BD00BF10B50446806C08B194
:1074F00028F014FFE06B08B128F010FF206B08B1F2
:1075000028F00CFF606A08B128F008FF20461DF043
:107510004DFA204610BD00BF08B5104B1B68012B6B
:1075200000D008BD0E4B1B68012B05D0022B0AD0E2
:107530000C4B00221A7008BD0B4813F079FD30B9CE
:10754000084B187008BD094813F072FDF8E70848A9
:1075500013F0F2FA80F00100C0B2F1E7F4760020F7
:10756000207700203C770020808B00204877002087
:10757000348D002038B5094CA4F5C36504F118001A
:1075800026F008F904F10C0026F004F9204626F054
:1075900001F9AC42A4F12804F0D138BD3C730020BD
:1075A000F8B5184C00236568637026F01DFB854212
:1075B00000D1F8BD144813F0BFFAF0B926F014FB5F
:1075C000124E054641F28837304613F031FD03462E
:1075D000012043B9237833B926F012FB26F004FBCF
:1075E000431BBB42F0D90A4A0323D01D002113F0EC
:1075F00023FD26F0F9FA6060F8BD034813F09EFA07
:10760000DCE700BF40770020348D00204877002061
:1076100041770020F8B51A4C013862786568C0B22D
:10762000012383401343637026F0DEFA854200D1C4
:10763000F8BD144813F080FAF0B926F0D5FA124ECE
:10764000054641F28837304613F0F2FC034601202C
:1076500043B9237833B926F0D3FA26F0C5FA431B91
:10766000BB42F0D9094A0323D01D002113F0E4FCEA
:1076700026F0BAFA6060F8BD024813F05FFADCE762
:1076800040770020348D002048770020417700208B
:1076900081682DE9F0470568044669B1284E2B68DA
:1076A0000A685B68A260B34208463DD126F0DEFA64
:1076B000A1680029F3D12568238E04F10C0903B3D6
:1076C0000027E36ADFF878A0B8460BE026F0CEFA90
:1076D000E36AC6F80080218EC6F804800137BAB28A
:1076E00091420FD9BEB203EBC60671680846002965
:1076F000EFD02B685B685345E8D028469847E36A8B
:10770000E7E7E36A00214FF6FF7299452186A286DA
:1077100007D02A680A4952688A420BD1184626F0D7
:10772000A5FA2046BDE8F08728469847A1680029B9
:10773000B5D1C0E72846194690472046BDE8F087F6
:107740007173020038B50B4C94F8345205B138BD52
:10775000201D25F0C9F9201D022184F8745224F05F
:107760005BF90123C4E90553201DBDE8384025F02D
:10777000CBB900BFC48200202DE9F041051D0446AD
:107780000027284625F0B0F94FF0010828460221CD
:1077900084F8747224F040F93D4967612846C4F8C2
:1077A000188025F007FC3B49284625F003FC3A49A0
:1077B000284625F0FFFB284625F0A6F9226F374B17
:1077C0003749092AC3E9001724DCA66F6EB3D4F841
:1077D000A430002B4BD0D4F8D030002B49D0D4F8B3
:1077E000FC30002B47D0D4F82831002B45D0D4F8FA
:1077F0005431002B43D0D4F88031ABB1D4F8AC3144
:10780000002B3ED0D4F8D831002B3CD0D4F8043231
:10781000002B3AD0234924484FF0FF3625F0CAFB0D
:10782000C4F82C62BDE8F08106262C2505FB064530
:1078300040F6B83301221D49C5F884300023C5F84D
:107840008C30C5F8943085F89830EC67A96785F8D6
:107850008020C5F8882085F8902026F0C5F9686753
:10786000236FC4F82C6201332367BDE8F0814646DC
:10787000DBE70226D9E70326D7E70426D5E7052666
:10788000D3E70726D1E70826CFE70926CDE700BFD3
:1078900028E1050030E105003CE105000C6A00200C
:1078A0005D9F020048E10500148D0020DD7202009A
:1078B0002DE9F041051D04460027284625F014F95E
:1078C0004FF001082846022184F8747224F0A4F8CD
:1078D0003F4967612846C4F8188025F06BFB3D4995
:1078E000284625F067FB3C49284625F063FB3B49C9
:1078F000284625F05FFB284625F006F9226F384B15
:107900003849092AC3E9001724DCA66F6EB3D4F8FE
:10791000A430002B4BD0D4F8D030002B49D0D4F871
:10792000FC30002B47D0D4F82831002B45D0D4F8B8
:107930005431002B43D0D4F88031ABB1D4F8AC3102
:10794000002B3ED0D4F8D831002B3CD0D4F80432F0
:10795000002B3AD0244925484FF0FF3625F02AFB6A
:10796000C4F82C62BDE8F08106262C2505FB0645EF
:1079700041F2707301221E49C5F884300023C5F816
:107980008C30C5F8943085F89830EC67A96785F895
:107990008020C5F8882085F8902026F025F96867B2
:1079A000236FC4F82C6201332367BDE8F08146469B
:1079B000DBE70226D9E70326D7E70426D5E7052625
:1079C000D3E70726D1E70826CFE70926CDE700BF92
:1079D00028E1050060E105003CE105006CE10500DF
:1079E0000C6A00205D9F020048E10500148D002014
:1079F000DD7202002DE9F0418B8E4FF6FF7293424B
:107A000082B00C46054616D0CA6AD90902EBC102FB
:107A100003F07F01526832F83100A08602EBC10208
:107A200000204FF6FF71107128462A60AB80D1808C
:107A300002B0BDE8F081098E2768002932D1638E3B
:107A4000002B00F085800123E66A5A4A23864FF412
:107A500080604FF080083B681B68934274D126F029
:107A6000EBF8238EE76A7060013B9BB207EBC30122
:107A700000284A6808BF4FF000080020A6F80080E0
:107A8000708022B137F83360488886422ED80121B1
:107A900000224FF6FF73284621712A60AB8002B0A6
:107AA000BDE8F081E66A4B1E9BB206EBC30E304682
:107AB000DEF804202AB1BEF802C036F83380E04573
:107AC0001CD8638E994223D03A4A4B1C9BB2B3F523
:107AD000007F00EBC106238615BF4FF480604FF492
:107AE0007E704FF080084FF07F08B4E700EBC313BF
:107AF000441C9BB202EBC0024C8091E70CEBC31319
:107B00000CF101019BB202EBCC02AEF8021087E748
:107B1000B3F5007FBBD004F10C025B0096421FFA64
:107B200083F83B6816D024489B6883424FEAC8011B
:107B300035D1304632F090FE0028A8D01D4A218E63
:107B4000E062A4F83280C0E701463846984788E7EB
:107B5000E66AE0E7174A1B68019293424FEAC800C1
:107B600022D126F069F8019A002890D0D6F800C0FA
:107B70007168B368D6F80CE0C0F80CE0C0F800C03B
:107B800041608360D6F810C07169B369D6F81CE013
:107B9000C0F81CE0C0F810C041618361CFE70A461D
:107BA000384631469847C7E7014638469847019A14
:107BB000DAE700BF79730200817302002DE9F0411A
:107BC0008B8E4FF6FF72934282B00C46054611D061
:107BD000CA6AD90902EBC10203F07F01526832F888
:107BE0003100A08602EBC10228462A60AB8002B0B9
:107BF000BDE8F081098E2768002932D1638E002B01
:107C000000F085800123E66A594A23864FF480609C
:107C10004FF080083B681B68934274D126F00CF843
:107C2000238EE76A7060013B9BB207EBC30100281B
:107C30004A6808BF4FF000080020A6F80080708056
:107C400022B137F83360488886422ED801210022BD
:107C50004FF6FF73284621712A60AB8002B0BDE861
:107C6000F081E66A4B1E9BB206EBC30E3046DEF88F
:107C700004202AB1BEF802C036F83380E0451CD893
:107C8000638E994223D03A4A4B1C9BB2B3F5007FD6
:107C900000EBC106238615BF4FF480604FF47E7061
:107CA0004FF080084FF07F08B4E700EBC313441C8B
:107CB0009BB202EBC0024C8096E70CEBC3130CF1B5
:107CC00001019BB202EBCC02AEF802108CE7B3F5D7
:107CD000007FBBD004F10C025B0096421FFA83F8D0
:107CE0003B6816D023489B6883424FEAC80135D1D0
:107CF000304632F0B1FD0028A8D01D4A218EE06246
:107D0000A4F83280C0E701463846984788E7E66A1B
:107D1000E0E7174A1B68019293424FEAC80022D15C
:107D200025F08AFF019A002890D0D6F800C071682B
:107D3000B368D6F80CE0C0F80CE0C0F800C04160B1
:107D40008360D6F810C07169B369D6F81CE0C0F83A
:107D50001CE0C0F810C041618361CFE70A46384695
:107D600031469847C7E7014638469847019ADAE70F
:107D7000797302008173020070B5456A6A1C1F2A7C
:107D800004460E4604D8631962621E71012070BD5C
:107D90004319014600251D7151F8040B25F074FDAF
:107DA00008B10122EFE7656A002DFAD070BD00BF6F
:107DB0002DE9F84307464068BD68032D884600F169
:107DC000080613D85FFA85FC002D77D00CF1FF343C
:107DD00056FA84F4C31D002213F8011F002908BFBE
:107DE00042F00102A342F7D1002A40D0002373558C
:107DF000D7F80090BE68D9F80830A3B106F1070C97
:107E00008444DA8896420BD13EB3C21DDC1D01E0EA
:107E1000944522D012F8011F14F8015FA942F7D04F
:107E20001B68002BEDD1B6F5803F7D68D9F8004086
:107E300034D2236828489B68834206F1090140D167
:107E4000284632F009FD034643B33A68DE80916864
:107E5000196000219360796002E09A8801329A806B
:107E60000522C8F8003088F80420BDE8F883022312
:107E700088F80430037A88F80030BCF1010F08D08C
:107E8000437A88F80130BCF1020F02D0837A88F877
:107E90000230002308F80530BDE8F88323680F4A54
:107EA0005B68934213D02946204698473A680023DE
:107EB0009268012189F804101A60FFDE02230B7119
:107EC000E7E70A462046294698470346BCE7284686
:107ED00025F0CCFEEAE700BF817302007173020057
:107EE0002DE9F04745684DB18368EA88934204461E
:107EF0000E4605D01D440133A3602E72BDE8F08705
:107F00005B00D0F800905F1CB7F5803FD9F8008087
:107F100012D2D8F800201549D2F808A08A4503F1FA
:107F20000A021CD11146284632F096FC20B1C780C7
:107F3000A36860600546DDE7D8F800300C4A5B684E
:107F4000934208D1284625F091FE0122002389F8AA
:107F500004206360D2E7294640469847F5E7294662
:107F60004046D0470028E2D1E6E700BF8173020017
:107F70007173020003792DE9F0470C46D9070546D5
:107F800037D4DA0624D413F0600F1DD02E884FF6B4
:107F9000FF77BE4215D0E36AF20903EBC20306F095
:107FA0007F09D3F8048008EBC900B246C688214691
:107FB000FFF7E0FFA38E28F83930BE42A4F834A0C2
:107FC000E9D14FF0FF332B6000232B71BDE8F08720
:107FD0002A884FF6FF718A4237D0E16AA68ED0090F
:107FE00001EBC00102F07F00496821F83060A286F1
:107FF000C9E7A0682A6826680028C2D0824216D045
:10800000014600680028BCD08242F9D18288013A3A
:1080100092B28280002AB4D103680B6033680C4AA4
:108020005B6893420CD125F021FE2B79A9E7828869
:10803000013A92B28280002AA3D10368A360EDE7DF
:108040000146304698472B799BE700231B80FFDED3
:10805000717302002DE9F04F0E46097885B02B2987
:10806000009000F0FD802D2940F0B880717801204B
:1080700001900644A1F13000C0B2092800F2B68098
:10808000DFF8F893C0B20021002400254FF09938A2
:1080900016F801BF2418ABF13007FFB241EB05051C
:1080A0004FEA850E092F6FEA07024FF0FF334FEAC0
:1080B000840C4EEA947EF8B24FF0000100F21E816B
:1080C000A94508BFA0450BD31CEB040C4EEB050ED5
:1080D0001CEB0C044EEB0E05AB4208BFA242D7D2FC
:1080E0004FF0000A0023204629460A2231F0D4FA34
:1080F000A946A0461FFA8AF3B9F5200F03F1010A39
:1081000008BFB8F1000F04460D460FFA8AFAE9D20B
:10811000092F0BD802339B1B06EB030A16F801BF8D
:10812000ABF13002092A0FFA8AFAF5D9BBF12E0F0A
:1081300000F0B6800BF0DF03452B60D0BBF1000FE1
:1081400056D10AF126034C2B00F2FC80002D08BF0B
:10815000B4F5000F80F0F68007EE904ABAF1000FF8
:10816000F8EEE77A40F36481BC4B1AF0010F1CBFB4
:1081700093ED007A67EE877A5FEA6A0223D0D00730
:1081800044BF93ED017A67EE877A5FEAAA021AD0BC
:10819000D10744BF93ED027A67EE877A5FEAEA027D
:1081A00011D0D20744BF93ED037A67EE877A5FEA76
:1081B0002A1A08D0BAF1010F0CBF93ED047A93ED9F
:1081C000057A67EE877A019B0BB1F1EE677A009A28
:1081D0000123C2ED027A137010460DE000200190D9
:1081E000A1F13000C0B209287FF64AAF2E2953D042
:1081F000009A00231370104605B0BDE8F08F96F882
:1082000001B0BBF12D0F36D0BBF12B0F00F0F08089
:10821000ABF13003DAB2092A06F101068ED80AEB77
:108220000302B2F59A7F00F3D780002706E002EB45
:10823000400303EB0A02B2F59A7F79DC16F801BF1E
:10824000ABF13002D1B2092903EB8300EFD9002F43
:1082500040F0C7809A44BBF1000F3FF472AFC7E70C
:10826000717800200190A1F13000C0B2092806F118
:108270000106BBD804E796F802B0ABF13003DAB2DE
:10828000092A06F102063FF659AF0AEB0302B2F5DE
:108290009A7F4FDC0127D1E7002400254FF0000A28
:1082A00096F801B0ABF13000C0B2092806F1010622
:1082B0003FF640AF6A4B4FF099329D424FEA85013D
:1082C00008BF94424FEA840741EA94710ED23F19E5
:1082D00045EB010117EB070841EB01090AF1FF3AF1
:1082E00018EB00040FFA8AFA49F1000516F801BFED
:1082F000ABF13000C0B20928DFD91BE7BBF1000F9A
:1083000040F0D280019B8BB1B5F1004F08BF012C2A
:10831000BFF4E6AE644265EB45050223009A1046C1
:10832000C2E90245137005B0BDE8F08F0323F5E7FD
:10833000002F51D000994FF00042012308468A6077
:108340000B7059E72046294630F01AFDBAF1000FAC
:1083500079DD444C1AF0010F7AD15FEA6A032DD01F
:10836000DF0700F18D805FEAAA0327D0DE0700F166
:108370008C805FEAEA0321D0DD0700F18B805FEAA1
:108380002A131BD0DA0700F18A805FEA6A1315D03E
:10839000DB073ED45FEAAA1310D0DF073ED45FEAC2
:1083A000EA130BD0DE073ED45FEA2A2306D0DD07AE
:1083B00044D45FEA5A231CBF2B490020019B13B110
:1083C00001F100431946009A0423C2E90201104654
:1083D000137005B0BDE8F08F019B0020BBB12349AD
:1083E000F1E7AAEB030ABBF1000F3FF4AAAEFFE6E8
:1083F00096F802B0ABF13003DAB2092A06F10206B0
:108400007FF60DAFBBF1000F3FF49BAEF0E61849CD
:10841000D9E7D4E90A2330F0E9FCBBE7D4E90C231F
:1084200030F0E4FCBBE7D4E90E2330F0DFFCBBE71F
:10843000CAF1000A3FF4C7AE0E4B96E6D4E910230A
:1084400030F0D4FCB5E7CAF1000AB7D00A4C81E796
:10845000D4E9002330F0CAFC7FE700BF7CF10500BF
:1084600099990100E0F105000000F87F0000F0FF9D
:108470000000F07F64F1050098F1050099999919C1
:10848000D4E9022330F0B2FC6DE7D4E9042330F0E4
:10849000ADFC6EE7D4E9062330F0A8FC6FE7D4E921
:1084A000082330F0A3FC70E7B5F5801F08BF002C4F
:1084B000BFF416AE4FF0000A38E600BF2DE9F843CE
:1084C000494C1646C2EBC20204EB82041D46D4E9B5
:1084D0000438002BD4F81890074622DD0122013918
:1084E00004297FD8DFE801F062584E2603002B46AE
:1084F000324601213846FFF7E1FF2B463246022182
:108500003846FFF7DBFF2B46032132463846FFF79C
:10851000D5FFD4E90438002BD4F818904FF00401AB
:10852000DCDCB8F1000FD9DCB9F1000FD4BF0022B8
:108530000122D4E72D4C05FB03F384FB03211944EE
:10854000DB17A3EBE11105FB08F8FF310B2028F046
:1085500031FD84FB083141444FEAE878A8EBE11192
:1085600005FB09F5FF310D2028F024FD84FB0531C2
:108570002944ED17A5EBE111FF31BDE8F8430C20CC
:1085800028F018BD12B1BB68002B1FDCBDE8F84312
:108590000021062028F00EBD12B1BB68002B1BDCA9
:1085A000BDE8F8430021082028F004BD12B1BB68E3
:1085B000002B05DCBDE8F8430021072028F0FABCB9
:1085C00029460720BDE8F84328F0F4BC29460620D8
:1085D000BDE8F84328F0EEBC29460820BDE8F84382
:1085E00028F0E8BCBDE8F883146A00208180808010
:1085F0000A4B0B4ADB682C2101FB0323DB6913F0D8
:10860000010F4FF0960304D0064800220421FFF723
:1086100055BF044801220421FFF750BFF87D002018
:108620003C7C0020287C00200A4B0B4A1B692C2133
:1086300001FB0323DB69DB0705D50848FF23002284
:108640000521FFF73BBF052204481146FF23FFF732
:1086500035BF00BFF87D00203C7C0020287C002036
:108660002DE9F041344E354D73682C2202FB035343
:108670002DED028BDB69012B31D0314C20461CF0F3
:1086800083FA20461CF098FB2046B0EE408A1CF08E
:1086900077FBB4F84C30B4F84410A26C01331BB231
:1086A0008B42A4F84C30AABF0023DB00A4F84C3066
:1086B000134483ED008A83ED010A94F84E30994209
:1086C000C4BF013384F84E3073682C2202FB03557B
:1086D000E969052918D0BDEC028BBDE8F081194B82
:1086E0001B78002BC9D0184A1848116803684B61E1
:1086F000052200240227C1E90072C1E902240C61AD
:108700001146FFF7DBFEB8E70E4B1B78002BE2D0DB
:10871000BDEC028B0C4B0D481A68056855610023AF
:108720000124C2E90043C2E903339160BDE8F0418E
:108730001A46FFF7C3BE00BF4476002088740020AD
:108740005C7B0020347C0020387C0020287C0020CA
:1087500070B5294C294D064600222046012119F00A
:10876000EDFA10222046092118F0F6F820460421DF
:1087700019F0A2FC3146204619F076FC2846204923
:10878000204E122219F094FD0D221F49284619F09F
:108790008BFD284604F5C86419F0C4FD304619F075
:1087A00067FE0621204616F05BFE204616F040FECE
:1087B000204640F2C13116F067FE204640F2C23139
:1087C00016F062FE3146204616F0EEFD204616F009
:1087D00001FE2046012116F089FE2046F4222021C8
:1087E00016F080FE20461E2116F07AFE204600215B
:1087F000BDE8704016F0DABE749900206C7300205A
:1088000078E10500B47300208CE1050000232DE918
:10881000F041C0E90933C0E90B33C0E90D33054627
:108820008846174625F0E0F905F5FC76044605F183
:10883000400318462C22002131F088F9034643F802
:108840002C4BB342F5D10024EC633C2027F062FDB1
:108850006FF060439F424FF0050268602C8134BF87
:10886000B8004FF0FF30AC722A8027F053FD002F84
:10887000C5E9030711DDA8F1040404EB8707C8F17B
:10888000040808EB0406022154F8040F28F01AFC2F
:10889000EB6822689A51A742F3D12846BDE8F081DF
:1088A0000389018801331BB28B4270B5038145688F
:1088B000B5BF03EB430300239B0003810446002262
:1088C000E818EA50C0E90122A37A9942C4BF0133F3
:1088D000A372E36B092B1BDC666CFEB1236FB3B391
:1088E000D4F89C30ABB3D4F8C830A3B3D4F8F43088
:1088F0009BB3D4F8203193B3D4F84C316BB1D4F896
:10890000783173B3D4F8A4316BB3D4F8D03163B3F6
:108910004FF0FF36C4F8F86170BD06262C2505FB24
:10892000064500230122C5E911332B6585F84C303B
:108930002B6685F864306A6585F85C2025F054F96B
:108940002864E36BC4F8F8610133E36370BD01266A
:10895000E4E70226E2E70326E0E70426DEE7052651
:10896000DCE70726DAE70826D8E70926D6E700BFBE
:1089700070B504461AF0FCFC04F11C001BF0D8FE94
:10898000174BE36125F030F904F52476054604F130
:10899000D80318462C22002131F0D8F8034643F8BA
:1089A0002C5BB342F5D10025C4F8D4503C2027F00D
:1089B000B1FC0523C4F8A400A4F8A030A4F8A85082
:1089C00084F8AA50902027F0A5FC0C2384F8B65018
:1089D000C4F8B000A4F8B450A4F8AC30204670BD80
:1089E000A0F90500F0B5002190F8AA2085B0044652
:1089F00000271BE0B4F8A830B4F8A00001331BB284
:108A0000A4F8A830834203EB4306D4F8A430ACBFEB
:108A1000A4F8A87003EB860390421960596099602E
:108A2000CABFEAB294F8AA2084F8AA20042A02F164
:108A30000105DFD90026C4E9A866C4F8A86204F5D8
:108A4000287393E8070004F5257585E80700B4F856
:108A5000B430B4F8AC7001AD85E8070001331BB247
:108A6000BB42A4F8B43095E80700BCBF03EB430356
:108A70009E00D4F8B030A8BFA4F8B4601E4486E8C5
:108A8000070094F8B6309F42C4BF013384F8B63073
:108A9000D4F8D430092B1EDCD4F8DC6016B3D4F83B
:108AA0000831002B3ED0D4F83431EBB3D4F8603128
:108AB000E3B3D4F88C31DBB3D4F8B831D3B3D4F802
:108AC000E43173B1D4F81032B3B3D4F83C32ABB361
:108AD000D4F86832A3B34FF0FF36C4F8906205B003
:108AE000F0BD06262C2505FB064500230122C5E91D
:108AF0003733C5F8E83085F8E430C5F8F83085F844
:108B0000FC30C5F8EC2085F8F42025F06DF8C5F8A8
:108B1000D800D4F8D430C4F890620133C4F8D4300B
:108B200005B0F0BD0126DDE70226DBE70326D9E725
:108B30000426D7E70526D5E70726D3E70826D1E799
:108B40000926CFE72DE9F84304462DED028B25F0E9
:108B50004BF8D4F8BC30022B07D0012B36D0BDEC3B
:108B6000028B9FED2B0ABDE8F883054604F11C0932
:108B700004F1580804F17C0740F6B83620461AF094
:108B800029FC3A4641464846B0EE408A1BF0DAFEE0
:108B9000D4ED1B8A25F028F8431BB3420FD8B5EE5D
:108BA000C08AF1EE10FAE9DDF5EEC08AF1EE10FAB6
:108BB000E4DD38EE680ABDEC028BBDE8F8831549A8
:108BC000154824F0F7F938EE680AF4E725F00CF8B8
:108BD00040F6B836054604E0B5EEC08AF1EE10FA6C
:108BE0000DDC20461AF0F6FBB0EE408A24F0FCFFC4
:108BF000401BB042F0D90949074824F0DBF984ED65
:108C0000318ABDEC028B9FED020ABDE8F88300BFFC
:108C1000000000009CE10500148D0020C8E1050063
:108C200070B5274A2DED028B5D2105461AF0A2FB97
:108C300000283FD104462349234824F025F9234B3B
:108C40001C7005F11C061E4A304600235C211BF0F7
:108C500083FD044648BB1E491B4824F015F91D4BF3
:108C60001C701D4BC5F8D03002221C4BC5F8BC202F
:108C7000C5F8AC32C5F8B0322846FFF7B3FE142071
:108C800024F0BEFF9FED168A05242846FFF75AFF01
:108C9000013C38EE008AF8D1DFED127A28EE278AFF
:108CA00085ED328ABDEC028B70BD304603211BF08E
:108CB000D1FCD6E7032128461AF0B0FBC1E700BF7C
:108CC0009C8B0020F0E10500148D00201C77002013
:108CD00014E20500F0760020CDCCCC3D00004040F1
:108CE00000000000CDCC4C3E10B504461AF072FBDB
:108CF000D4F8BC3084ED300A022B35D0B5EEC00A72
:108D0000F1EE10FA2FDD94ED317AB5EEC07AF1EE86
:108D100010FA28DDB4F8A830B4F8A010D4ED327AF7
:108D2000D4F8A42001331BB28B4270EE677AA4F80A
:108D3000A830B4BF03EB4303002377EEC77AB4BF78
:108D40009B00A4F8A8301344C4ED337A83ED000AE5
:108D500083ED017AC3ED027A94F8AA309942C4BF38
:108D6000013384F8AA3010BD04F17C0204F15801EB
:108D700004F11C001BF0E6FD94ED1B7A94ED300A23
:108D8000B5EEC07AF1EE10FAB8DDB5EEC00AF1EE3C
:108D900010FA84ED317ABDDCE5E700BF70B504461A
:108DA0001BF0FCFD502027F0B5FA00250A23238490
:108DB0006062258584F82A50282027F0ABFA052622
:108DC0002063A58684F83650A685282027F0A2FACD
:108DD000A4F84050E06384F842502687282027F00A
:108DE00099FA84F84E50A064A4F84C50A4F844605A
:108DF000204670BD038D018C013300221BB2026539
:108E000042658265C265026642668266C266026724
:108E100042678B42426A0385AABF0023DB000385B9
:108E2000134430B400241C605C6090F82A30828DBA
:108E3000046B9942C4BF013380F82A30838E01331A
:108E40001BB293428386ACBF0023DB0004EB030517
:108E50004FF00001A8BF8386E150696090F836307A
:108E60009A42C4BF013380F83630B0F84030028FE8
:108E700001331BB29342A0F84030A4BF0023A0F8F6
:108E80004030C46BB8BFDB00E5180021E1506960D9
:108E900090F842309A42C8BF013330BCC8BF80F856
:108EA000423070470000000010B52DED048B90EDAE
:108EB000158AD0ED148AB3EE0E7A77EE487A37EE43
:108EC000687A67EEA77A0446E7EE077AF1EEE77A6A
:108ED00017EE900A2FF032FF5FA3D3E900232FF0A3
:108EE00085FF30F07BFA94ED177AD4ED167AC4F84A
:108EF000C00067EE076AE7EEA76AF5EEC06AF1EE1A
:108F000010FA1FDD77EEE87A37EE487A67EEA77A37
:108F100009EE100AE7EE077AF1EEE77A17EE900A0B
:108F20002FF00CFF4CA3D3E900232FF05FFF30F0AC
:108F300055FA07EE900AB4EEE79AF1EE10FAC8BFC0
:108F4000C4ED307A94ED197AD4ED187A67EE076A99
:108F5000E7EEA76AF5EEC06AF1EE10FA1FDD77EED4
:108F6000E87A37EE487A67EEA77AE7EE077AF1EE0D
:108F7000E77A17EE900A2FF0E1FE37A3D3E900233A
:108F80002FF034FF30F02AFA94ED307A07EE900A91
:108F9000F4EEC77AF1EE10FA48BFC4ED307A94EDE2
:108FA0001B7AD4ED1A7A67EE076AE7EEA76AF5EE48
:108FB000C06AF1EE10FA1FDD77EEE87A37EE487AF4
:108FC00067EEA77AE7EE077AF1EEE77A17EE900AF6
:108FD0002FF0B4FE20A3D3E900232FF007FF30F0D9
:108FE000FDF994ED307A07EE900AF4EEC77AF1EECF
:108FF00010FA48BFC4ED307A94ED1D7AD4ED1C7A96
:1090000067EE076AE7EEA76AF5EEC06AF1EE10FABE
:109010001FDD77EEE87A37EE488A67EEA77AE8EE4A
:10902000087AF1EEE77A17EE900A2FF087FE0AA38E
:10903000D3E900232FF0DAFE30F0D0F994ED307A46
:1090400007EE900AB4EEE77AF1EE10FAC8BFC4ED6D
:10905000307ABDEC048B10BDCC3B7F669EA0E63F12
:1090600030B560EEA07A2DED088BE0EE007A83B08B
:109070000446B5EE007AF4EEC77AF1EE10FA0D462A
:10908000C0F29A80D1ED148AD1ED247A91ED158A3F
:1090900030EE680AF8EEE78AD1ED257A60EE288A8C
:1090A00030EEC88AF8EEE77AF5EEC08A28EE278A15
:1090B000F1EE10FA4CBF01200020B5EEC08ACCBF03
:1090C00001220022121AF1EE10FA07EE902ACCBF0C
:1090D000012300234CBF012100215B1AF8EEE7AA0F
:1090E00007EE903AF0EE680AB0EE480AB8EEE7AA4A
:1090F0002DF0B8F8B0EE409A2CF0E4FD28EE08BA56
:10910000F0EE409AB0EE490AA8EEA8BA2CF022FE82
:1091100095ED309A69EE097AF4EECB7AF1EE10FA19
:109120000BD869EE298A29EE008AF0EEE88AB0EEC3
:10913000C88A68EEAA8A28EE0A8A79EE288ADFEDC4
:10914000310ADFED317A68EEA08A79EE099A88EE6D
:10915000A97A77EE676AB4EEE77AF1EE10FA16EEC6
:10916000900A38DB2FF0EAFD284B00222FF088FC14
:1091700030F0ECF89FED237ADFED237A206038EEB3
:10918000098A28EE078A88EE297A77EE676AB4EEB4
:10919000E77AF1EE10FA16EE900A25DB2FF0CEFDFD
:1091A0001A4B00222FF06CFC30F0D0F860602046A3
:1091B00003B0BDEC088B30BD9FED150AF7EE009AA9
:1091C000B0EE40BAB0EE40AAF0EE40AAB0EE408A4F
:1091D000F0EE408A9CE72FF0B1FD0C4B00222FF0FF
:1091E0004DFC30F0B3F8C5E72FF0A8FD074B002287
:1091F0002FF044FC30F0AAF86060204603B0BDECCC
:10920000088B30BD00000045000080440000E03FB6
:10921000000000002DE9F0432DED068B83B002AC79
:1092200004E90C00DDE9003707EE907A07EE103A0A
:10923000F8EEE77AB8EEC77A67EEA77A91F8A4203D
:10924000E7EE077A0C460546B1EEE78A002A00F001
:10925000AA8094F8A520D1ED2B7AF8EEE77A002ABF
:1092600000F0A880B4EEE78AF1EE10FAD4F8B4600A
:1092700040F2A88018462FF04FFD02460B463846B4
:1092800043EC192B2FF048FDB0EE491AF0EE691AA5
:1092900041EC100B2CF0A8FD51EC100B30F09EF8B7
:1092A00007EE906AF8EEE77A09EE900AB4EEE78AE4
:1092B000F1EE10FAC0F2AB8000EE100A2CF002FDC5
:1092C000DFEDA27A60EE277AF0EE408AF5EEC07A02
:1092D000F1EE10FA17EE900AC0F20B812FF02EFD7E
:1092E0009B4B00222FF0CCFB30F030F809EE100A37
:1092F000B0EE690A2CF02EFDDFED947A60EE277A4D
:10930000B0EE408AF5EEC07AF1EE10FA17EE900A50
:10931000C0F2FA802FF012FD8D4B00222FF0B0FB2F
:1093200030F014F807EE900AF8EEE77AF8EEC96A22
:1093300027EEA77A9FED856ADFED865AA6EEA67A1C
:10934000F1EEC77AFDEEE77AF8EEE77AF4EEC67A48
:10935000F1EE10FA88BFF0EE467AF4EEE57AF1EE1F
:1093600010FAB8BFF0EE657A68EEA78A28EE278A71
:1093700018EE900A2FF0E2FC804618EE100A89469B
:109380002FF0DCFCF5EEC08AF1EE10FA06460F462F
:109390001EDA6F4B0022404649462FF06FFB2FF03C
:1093A000D5FF04461DE094F8A520DFED6A7A002A77
:1093B0007FF458AFB4EEE78AF1EE10FA4FF480660E
:1093C0003FF658AF002600279FED628AB046B946A7
:1093D0005F4B0022404649462FF052FB2FF0B6FF6C
:1093E0000446B5EEC08AF1EE10FA594B30463946C4
:1093F0004FF000026DDB2FF043FB2FF0A7FFC5E914
:109400000040284603B0BDEC068BBDE8F083FDEEBE
:10941000C87AD4F8AC20D4F8B430DFED4C6A17EE3B
:10942000901A9B1A8A1A07EE902A07EE103AF8EE65
:10943000E77AB8EEC77A67EEA67AC7EE876AF5EEE6
:10944000C06AF1EE10FA16EE900A47DB2FF076FCB8
:109450003F4B00222FF014FB2FF078FF09EE100A8B
:10946000B0EE690A2CF02EFCB8EEC99AF0EE408AF4
:1094700069EE007AF5EEC07AF1EE10FA17EE900A76
:1094800058DB2FF05BFC324B00222FF0F9FA2FF063
:109490005DFF0AEE100AB0EE690A2CF05BFC29EEC3
:1094A000009AB0EE408AB5EEC09AF1EE10FA19EECD
:1094B000100A34DB2FF042FC254B00222FF0E0FA9B
:1094C0002FF044FF07EE900AF8EEE77AF8EECA6A4A
:1094D0002EE72FF0D3FA2FF039FF90E72FF02EFC74
:1094E0001B4B00222FF0CAFA2FF030FF09EE100AB2
:1094F000B6E72FF023FC164B00222FF0BFFA2FF017
:1095000025FF09EE100AF3E62FF018FC104B00229D
:109510002FF0B4FA2FF01AFF07EE900A04E72FF0AD
:109520000DFC0B4B00222FF0A9FA2FF00FFF07EED6
:10953000900AC9E72FF002FC054B00222FF09EFA9B
:109540002FF004FF0AEE100AA5E700BF00008044D8
:109550000000E03F00000000F0B52DED048B044654
:1095600083B01BF011FB20461BF026FC2046B0EE1A
:10957000408A1BF005FC676AB4F9286084ED1E8AF6
:1095800007EBC60384ED1F0AD3ED007A93ED019A31
:1095900078EE677AF0EE408AF0EEE77A17EE900AFE
:1095A0002FF0CCFB44A3D3E900232FF091FE002839
:1095B0007DD038EEC99AF0EEC97A17EE900A2FF0F6
:1095C000BDFB3DA3D3E900232FF082FE051E18BF8B
:1095D0000125228C84F8C450731C1BB2934223854E
:1095E000B2BF07EBC3070023238587ED008AC7EDD1
:1095F000018A94F82A309A42C4BF013384F82A3091
:10960000002D50D16E46304694ED1E0AD4ED1F0A4F
:109610002146FFF725FD96E80300A38EA78D04F1F0
:10962000800282E80300581C00B2236BA086B84277
:10963000D4E920ECB8BFC50003EB0501A8BFA5869F
:1096400043F805E0C1F804C094F836309F42C4BF27
:10965000013384F836300CCA30462146FFF7DAFD74
:10966000B4F84030228F96E8030001331BB204F1B6
:10967000880585E803009342E16BA4F84030ACBF55
:109680000023DB00064601EB0300A8BFA4F840302E
:10969000D4F88C50CE50456094F842309A42C4BF02
:1096A000013384F8423003B0BDEC048BF0BD0546B5
:1096B0008FE700BFAFF300809A9999999999B93FC4
:1096C00070B5002384B00446D64A00F8043BD64B5C
:1096D00002934FF0FF33CDE900328021D34B40227B
:1096E00022F042FE24F080FA04F50B7604F17403B4
:1096F000054618462C22002130F028FA034643F88C
:109700002C5BB342F5D100254FF480724FF0FF334C
:109710000126C4E98F332567C4F83852C4F844528F
:1097200084F87452A4F8342284F86C6224F05CFA51
:109730000C220A23C4E99E02C4F88032C4E9A15570
:10974000C4F88C52BA4904F5267023F07DFF84F8E2
:10975000B052B84904F52D7023F076FFB64904F5F0
:10976000307023F071FFB54904F5337023F06CFFBE
:10977000B34904F5367023F067FFB24904F5397038
:1097800023F062FFB04904F53C7023F05DFFAF4960
:1097900004F53F7023F058FFAD4904F5427023F003
:1097A00053FFAC4904F5457023F04EFFAA4904F578
:1097B000487023F049FFA14904F54B7023F044FFA2
:1097C000A54904F54E7023F03FFFA44904F55170FC
:1097D00023F03AFFA14904F5547023F035FFA04966
:1097E00004F5577023F030FF9E4904F55A7023F0BA
:1097F0002BFF9D4904F55D7023F026FF964904F583
:10980000607023F021FF994904F5637023F01CFF79
:10981000974904F5667023F017FF8E4904F56970C7
:1098200023F012FF8C4904F56C7023F00DFF914971
:1098300004F56F7023F008FF8F4904F5727023F070
:1098400003FF8E4904F5757023F0FEFE824904F58E
:10985000787023F0F9FE8A4904F57B7023F0F4FE5A
:10986000884904F57E7023F0EFFE874904F2044036
:1098700023F0EAFE854904F5826023F0E5FE844981
:1098800004F21C4023F0E0FE824904F5856023F0D9
:10989000DBFE814904F2344023F0D6FE7F4904F513
:1098A000886023F0D1FE6C4904F24C4023F0CCFEDA
:1098B0007B4904F58B6023F0C7FE7A4904F26440CB
:1098C00023F0C2FE784904F58E6023F0BDFE6249A4
:1098D00004F27C4023F0B8FE744904F5916023F053
:1098E000B3FE654904F2944023F0AEFE634904F5EB
:1098F000946023F0A9FE584904F2AC4023F0A4FE82
:109900005C4904F5976023F09FFE5B4904F2C44074
:1099100023F09AFE594904F59A6023F095FE4E49CA
:1099200004F2DC4023F090FE614904F59D6023F0D1
:109930008BFE604904F2F44023F086FE464904F5AC
:10994000A06023F081FE3A4904F20C5023F07CFE23
:10995000594904F5A36023F077FE474904F22450E7
:1099600023F072FE454904F5A66023F06DFE3A49E6
:1099700004F23C5023F068FE504904F5A96023F03E
:1099800063FE3D4904F2545023F05EFE3B4904F56A
:10999000AC6023F059FE304904F26C5023F054FEC1
:1099A000474904F5AF6023F04FFE464904F2845066
:1099B00023F04AFE274904F5B26023F045FE26490C
:1099C00004F29C5023F040FE3F4904F5B56023F0BB
:1099D0003BFE3E4904F2B45023F036FE1D4904F527
:1099E000B86023F031FE1C4904F2CC5023F02CFE69
:1099F000374904F5BB6023F027FE364904F2E450F2
:109A000023F022FE134904F5BE6023F01DFE124927
:109A100004F2FC5023F018FE2D4904F5C16023F038
:109A200013FE59E0801A0600A08601009C8B0020DE
:109A3000BC0A060034E2050040E205004CE20500E5
:109A40005CE2050064E2050074E205007CE20500CA
:109A500084E2050090E2050098E2050024EA050092
:109A6000A4E20500B0E20500BCE2050084E10500C7
:109A7000C8E20500D0E20500D8E20500E4E20500F6
:109A8000F0E20500F8E205000CE305001CE3050028
:109A900028E305003CE305004CE305005CE305001A
:109AA00064E305006CE3050070E3050078E305005E
:109AB00084E3050094E30500A4E30500ACE305009E
:109AC000B4E30500BCE30500C8E30500D4E30500EA
:109AD000E0E30500E8E30500314904F2146023F0F7
:109AE000B3FD304904F5C46023F0AEFD2E4904F205
:109AF0002C6023F0A9FD2D4904F5C76023F0A4FDD7
:109B00002B4904F2446023F09FFD2A4904F5CA6002
:109B100023F09AFD244904F25C6023F095FD264968
:109B200004F5CD6023F090FD244904F2746023F025
:109B30008BFD234904F5D06023F086FD214904F212
:109B40008C6023F081FD04200223032205250921D6
:109B5000C4F8A4062046C4F8DC66C4F89856C4F8D5
:109B60009C36C4F8A036C4F8B036C4F8C836C4F879
:109B7000CC36C4F8D036C4F8D436C4F8D836C4F8D5
:109B8000A826C4F8B426C4F8B826C4F8BC26C4F87D
:109B9000C026C4F8C426C4F8AC1604B070BD00BF1B
:109BA000E8E3050090E2050098E205005CE30500AB
:109BB000F0E30500F8E30500FCE3050008E4050018
:109BC000B4E305004CE305002DE9F04F051D044604
:109BD0008BB02846002722F087FF4FF0010B284664
:109BE00084F87472022107AE21F016FF67612846DF
:109BF000C4F818B0022121F00FFF3349DFF8D0A0DC
:109C0000304623F021FD0DF11A090DF118080DF170
:109C1000160705AB284631460093CDE90289019726
:109C20000C23402221F0FEFEBDF8183023FA0BF37E
:109C3000C3F140030C22A382E2823146284623F07E
:109C4000D1F8304623F0A6FD5946284621F0E4FE1F
:109C500028465146CDE90296CDE9007820234022DE
:109C600021F0E0FEBDF81A3023FA0BF3C3F14003F4
:109C70002022A382E2825146284623F0B3F81349FA
:109C8000304623F0E1FC05AB009328463146CDE990
:109C9000028901973623402221F0C4FEBDF8183016
:109CA00023FA0BF3C3F140033622A382E28231464A
:109CB000284623F097F8304623F06CFD284622F022
:109CC00023FF0BB0BDE8F08F44E3050014E405006A
:109CD000486B002030B5044683B004300025019065
:109CE00022F002FF019884F87452022121F094FEC0
:109CF00001236561A36103B030BD00BFF8B5044620
:109D0000051D28460221D4F8A072002621F084FE09
:109D10000123A361E67723F067FFD4F87832C01AF5
:109D2000632800D8F8BD23F05FFFD4F84C321949FE
:109D3000C4F878021B01E382A682284623F076F855
:109D4000D4F84C32D4F87C22A2821B01E38204F5C1
:109D50002671284623F046F8D4F84C320E49A682E4
:109D60001B01E382284623F061F8284622F0CCFE4E
:109D70000A4BD4F87C221968A7EB8703521AB2EB7E
:109D8000830FB8BFB4F91030C4F87C22B8BFC4F850
:109D90007C32F8BD2CE4050050E40500EC630020A3
:109DA0002DE9F843D0F88422D0F84432DFF8B480AB
:109DB0002B4FDFF8B4901344032BA8BF0323061DD9
:109DC0000446C0F84C320221304621F025FE002521
:109DD0000123A3616561D4F84C32AB422CD0D4F896
:109DE0008432AB4239463046DCBF4146304623F030
:109DF000E1F80135042DEED1304622F085FED4F88D
:109E00004412D4F88432D4F894220B4403EB430177
:109E1000C4F8483202EB810104F5267023F0C2FC3D
:109E2000D4F88032D4F8A022013B934209D3002316
:109E300084F87432BDE8F8834946304623F0BAF816
:109E4000D7E70C23012284F87422C4F87C32C8209E
:109E500023F0D6FE2046BDE8F843FFF74FBF00BF12
:109E6000BC0A060024EA050050E40500F8B50546E2
:109E7000061D3046002422F037FE304685F8744235
:109E8000022121F0C9FD324F6C610123AB61D5F88D
:109E90008432A3423946304604EB44021CDC22F0F3
:109EA000C5FFD5F88832D5F89412234403EB430359
:109EB00001EB8301304623F037F80134042CE6D15E
:109EC000D5F83832032B0ED0304622F01DFE28463E
:109ED000BDE8F840FFF764BFD5F8941201EB8201AA
:109EE00023F022F8E9E7D5F850324FF48032012B05
:109EF000AA6116D0022B0CD0304622F005FE0123B9
:109F00003046AB6122F000FE2846BDE8F840FFF77E
:109F100047BF104B6B6105F55D71304622F062FF63
:109F2000EAE7D5F85832012B09D0022BE4D10A4BCD
:109F30006B6105F55A71304622F054FFDCE70C23C3
:109F40006B6105F55771304622F04CFFD4E700BF36
:109F500024EA05000C0020000C00100010B5044697
:109F600000F52D7100F2746023F01CFCD4F8D806C3
:109F70000623C4F8383204F5CD6100230222C4E977
:109F8000A401C4F88422C4F84432C4F888322046BC
:109F9000BDE81040FFF76ABF38B5044623F024FE41
:109FA00094F87432C4F8AC0233BBD4F84432D4F819
:109FB000902201339342C4F8443213DAD4F8842255
:109FC0001344032B09DDD4F888320133C4F88832F6
:109FD0002046BDE83840FFF749BF2046BDE838407D
:109FE000FFF7DEBE0023C4F84432C4F888322046AE
:109FF000BDE83840FFF73ABFD4F848320A491B01A0
:10A000000022251DE382A282284622F00FFFD4F809
:10A0100048320C221B012846E382A28204F52671F5
:10A0200022F0E0FEC1E700BF2CE40500F0B589B0E6
:10A0300016B20DF11E0207AF0DF11A05039206AA22
:10A04000CDE9015704463346043000924022059082
:10A050000F4621F0E7FCBDF81C500598E6826B081E
:10A06000C3F140033946A38222F0BCFE09B0F0BD23
:10A070002DE9F04F051D04468BB04FF0000B28462C
:10A0800022F032FD01272846022184F874B221F023
:10A09000C3FC28460221C4F814B0A76121F0BCFC1F
:10A0A00005AE0DF11A0A0DF118090DF116088349D4
:10A0B00007A823F0C9FA4022CDE9006828465B468C
:10A0C00007A9CDE9029A21F0ADFCBDF81830A4F83B
:10A0D00016B0FB40C3F14003A38207A9284622F033
:10A0E00081FE07A823F056FB754907A823F0ACFAB8
:10A0F000CDE90068284607A910234022CDE9029A3D
:10A1000021F090FCBDF81830FB40C3F14003102251
:10A11000A382E28207A9284622F064FE07A823F062
:10A1200039FB3946284621F077FC664907A823F019
:10A130008BFACDE90068284607A928234022CDE9FB
:10A14000029A21F06FFCBDF81830FB40C3F14003C8
:10A150002822A382E28207A9284622F043FE07A80C
:10A1600023F018FB2846022121F056FC2846022144
:10A1700021F052FCD4F85062022E75D0032E05D087
:10A18000BE425ED05049284622F014FF284622F0F5
:10A19000BBFC236F092B25DCA66F002E32D0D4F830
:10A1A000A430002B79D0D4F8D030002B77D0D4F85D
:10A1B000FC30002B75D0D4F82831002B73D0D4F8A4
:10A1C0005431002B71D0D4F88031D3B1D4F8AC31F4
:10A1D000002B6CD0D4F8D831002B6AD0D4F80432DC
:10A1E000002B68D039493A4822F0E4FE4FF0FF36A0
:10A1F000C4F82C6223F0F8FCC4F8AC020BB0BDE844
:10A20000F08F06262C2505FB0645324942F21073D5
:10A210000122C5F884300023C5E91E1385F880307B
:10A22000C5F88C30C5F8943085F89830C5F888208A
:10A2300085F8902023F0D8FC6867236F01332367EB
:10A24000D6E7D4F85832BB4225D0022B9ED1224902
:10A2500007A823F0F9F92046302207A9FFF7E6FE08
:10A2600007A823F097FA91E71C4B63611C49284625
:10A2700022F0DCFD3946284621F0CEFB194928465C
:10A2800022F0D4FD3146284621F0C6FB1649284667
:10A2900022F0CCFD7AE71549DAE70126B2E702267B
:10A2A000B0E70326AEE70426ACE70526AAE70726B3
:10A2B000A8E70826A6E70926A4E700BF54E405009E
:10A2C00060E4050064E4050090E4050048E1050051
:10A2D000148D00204577020078E40500010030006D
:10A2E00084E4050024EA050088E405006CE4050028
:10A2F000D0F8A426032370B50446C0F8383200F520
:10A3000057760023C0E9A426C0F88432C0F844324E
:10A31000C0F88832FFF7AAFDD4F850324FF48032EB
:10A32000012BA2610FD0022B13D11B4B6361251DA2
:10A3300004F55D71284622F055FD284622F0E4FB25
:10A340000123A36170BDD4F85832012B16D0022B23
:10A3500006D0251D284622F0D7FB0123A36170BD3E
:10A360000E4B6361251D04F55A71284622F03AFD13
:10A37000284622F0C9FB0123A36170BD0C23251DD3
:10A3800063613146284622F02DFD284622F0BCFBB1
:10A390000123A36170BD00BF0C0020000C00100061
:10A3A0002DE9F041061D04460027304622F09CFBB3
:10A3B0004FF001083046022184F8747221F02CFB22
:10A3C0003C4967613046C4F8188022F0F3FD3A49F1
:10A3D0003A4D304622F0EEFD3949304622F0EAFD92
:10A3E0003849304622F0E6FD304622F08DFB2B68DE
:10A3F000354A84F80080092B177023DCAE68002EE4
:10A400002BD06B6B002B45D02B6E002B44D0D5F896
:10A410008C30002B42D0D5F8B830002B40D0D5F886
:10A42000E430002B3ED0D5F81031ABB1D5F83C313B
:10A43000002B39D0D5F86831002B37D0D5F89431BE
:10A44000002B35D02149224822F0B4FD214B4FF09A
:10A45000FF361E60BDE8F08106262C2404FB06545E
:10A460001D494FF47A73012263610023C4E902138A
:10A47000E361636284F828302274A26184F82020AA
:10A4800023F0B2FB2B68606001332B60114B1E6020
:10A49000BDE8F0814646E0E70226DEE70326DCE77A
:10A4A0000426DAE70526D8E70726D6E70826D4E704
:10A4B0000926D2E798E40500A0E40500887400208E
:10A4C000ACE40500B8E405000860002048E10500A0
:10A4D000148D002044760020C9BA0200F8B5054664
:10A4E000002605F8046B0446284622F0FDFA1D49B3
:10A4F0006661284622F05EFD1B49284622F05AFD7F
:10A500001A49284622F056FD284622F0FDFA4FF45B
:10A51000FA6023F075FB94F8347297B1D4F898265A
:10A52000C4F8386204F53073C4E9A423C4F8846223
:10A53000C4F84462C4F888622046BDE8F840FFF7DA
:10A5400095BC284622F0D0FA284684F8747202217D
:10A5500021F062FA012367612846A361BDE8F84053
:10A5600022F0D2BA98E405001CF10500C4E405000D
:10A570002DE9F041041D05460027204622F0B4FADB
:10A580004FF00108204685F87472022121F044FA48
:10A590003B496F61C5F81880204622F00BFD394910
:10A5A000394D204622F006FD3849204622F002FDB2
:10A5B000204622F0A9FA3648FEF71CFC2B68354AE3
:10A5C000092B177023DCAE68002E2BD06B6B002B91
:10A5D00045D02B6E002B44D0D5F88C30002B42D0C8
:10A5E000D5F8B830002B40D0D5F8E430002B3ED061
:10A5F000D5F81031ABB1D5F83C31002B39D0D5F8B6
:10A600006831002B37D0D5F89431002B35D0224952
:10A61000224822F0CFFC224B4FF0FF361E60BDE8EF
:10A62000F08106262C2404FB06541E494FF47A734D
:10A63000012263610023C4E90213E361636284F8C9
:10A6400028302274A26184F8202023F0CDFA2B68F0
:10A65000606001332B60124B1E60BDE8F0814646FE
:10A66000E0E70226DEE70326DCE70426DAE7052634
:10A67000D8E70726D6E70826D4E70926D2E700BFA1
:10A68000D0E40500D8E4050088740020E4E4050067
:10A690005C7B00200860002048E10500148D00204C
:10A6A0004476002069E40200F8B50446051D2846FA
:10A6B00000270E4622F018FA0221284684F8747208
:10A6C00021F0AAF90123711E6761A36109292CD821
:10A6D000DFE801F04556677C91052B2B2B30544960
:10A6E000284622F067FC5349284622F063FC28469E
:10A6F00022F00AFA40F2DC5023F082FA94F8343265
:10A70000002B00F08D80D4F89816002304F53072E9
:10A71000C4E9A412C4F83832C4F88432C4F844320C
:10A72000C4F888322046FFF7A1FB2846BDE8F84070
:10A7300022F0EAB94049284622F03CFC3F4928462D
:10A7400022F038FC3E49284622F034FC28463D4998
:10A7500022F030FC2846BDE8F84022F0D5B93A494D
:10A76000284622F027FC3949284622F023FC2846B7
:10A77000374922F01FFC2846BDE8F84022F0C4B952
:10A780003149284622F016FC3049284622F012FCB6
:10A790002846304922F00EFC2846BDE8F84022F059
:10A7A000B3B92949284622F005FC2849284622F059
:10A7B00001FC2949284622F0FDFB2846274922F0C2
:10A7C000F9FB2846BDE8F84022F09EB91E4928460C
:10A7D00022F0F0FB1D49284622F0ECFB1E492846DA
:10A7E00022F0E8FB28461E4922F0E4FB2846BDE89B
:10A7F000F84022F089B91B49284622F0DBFB1A49B0
:10A80000284622F0D7FB1949284622F0D3FB2846D8
:10A810000E4922F0CFFB2846BDE8F84022F074B97B
:10A820002046FFF757FA284622F06EF97DE700BF71
:10A8300028E5050034E5050040E505004CE5050088
:10A8400058E5050064E50500ECE40500B8E4050002
:10A85000F4E4050000E505000CE5050004E505004D
:10A86000F8E4050014E5050020E50500B0E4050066
:10A87000D0F87032332210B50446C0F83822E3B164
:10A88000134900F2644022F0D5FF124904F58E60AE
:10A8900022F0D0FFD4F8B036C4F8903204F58B61C2
:10A8A00002220023C4F89412C4F88422C4F844326B
:10A8B0002046BDE81040FFF7D9BA074900F26440CE
:10A8C00022F0B8FF054904F58E6022F0B3FFE1E7FE
:10A8D000A0EA050070E505007CE5050080E50500BF
:10A8E00070B50446051D0026284622F0FDF82846CE
:10A8F00084F87462022121F08FF80123A3611749C3
:10A900006661284622F056FB1549284622F052FB84
:10A910001449284622F04EFB1349284622F04AFBF0
:10A92000284622F0F1F840F6B83023F069F9D4F85F
:10A93000D416C4F8446240F2272004F5C162022311
:10A94000C4F83802C4E9A412C4F88862C4F8843296
:10A950002046BDE87040FFF789BA00BF88E50500D2
:10A9600094E50500A0E50500ACE5050070B50446DA
:10A97000051D0026284622F0B7F8284684F87462A0
:10A98000022121F049F80123A36116496661284696
:10A9900022F010FB1449284622F00CFB13492846EC
:10A9A00022F008FB1249284622F004FB284622F038
:10A9B000ABF84FF4FA6023F023F9D4F8D016C4F8BA
:10A9C000446240F23B2004F5BB620223C4F8380223
:10A9D000C4E9A412C4F884322046BDE87040FFF7F1
:10A9E00045BA00BFB4E50500C0E50500CCE50500AB
:10A9F000D4E5050010B584B004461B4901A822F037
:10AA000023FE1A4901A822F0E9FF014604F244603E
:10AA100022F0C8FE01A822F0BDFE154901A822F0CF
:10AA200013FE144901A822F0D9FF014604F5CA60BB
:10AA300022F0B8FE01A822F0ADFED4F8DC063A23DD
:10AA4000C4F8383204F5C76100230322C4E9A40125
:10AA5000C4F88422C4F84432C4F888322046FFF790
:10AA600005FA04B010BD00BFE0E50500486B00200A
:10AA7000E4E50500FC76002070B5041D05460026BF
:10AA8000204622F031F8204685F87462022120F039
:10AA9000C3FF0123AB610B496E61204622F08AFAA5
:10AAA0000949204622F086FA0849204622F082FA17
:10AAB0002046074922F07EFA2046BDE8704022F089
:10AAC00023B800BFE8E50500F0E50500FCE505005A
:10AAD00008E605002DE9F041051D0446002728463B
:10AAE00022F002F84FF001082846022184F874721F
:10AAF00020F092FF3B4967612846C4F8188022F095
:10AB000059FA3949284622F055FA3649284622F0A2
:10AB100051FA284621F0F8FF236F092B24DCA66F99
:10AB20006EB3D4F8A430002B4BD0D4F8D030002B27
:10AB300049D0D4F8FC30002B47D0D4F82831002B72
:10AB400045D0D4F85431002B43D0D4F88031ABB188
:10AB5000D4F8AC31002B3ED0D4F8D831002B3CD007
:10AB6000D4F80432002B3AD0204921484FF0FF3668
:10AB700022F020FAC4F82C62BDE8F08106262C25CC
:10AB800005FB06451B4940F6B8330122C5F8843061
:10AB90000023C5E91E1385F88030C5F88C30C5F850
:10ABA000943085F89830C5F8882085F8902023F0F7
:10ABB0001BF86867236FC4F82C6201332367BDE874
:10ABC000F0814646DBE70226D9E70326D7E70426CD
:10ABD000D5E70526D3E70726D1E70826CFE70926DC
:10ABE000CDE700BFBC0A060010E6050048E10500FD
:10ABF000148D0020457702002DE9F041051D044623
:10AC00000027284621F070FF4FF001082846022156
:10AC100084F8747220F000FF3B4967612846C4F84D
:10AC2000188022F0C7F93949284622F0C3F938497B
:10AC3000284622F0BFF9284621F066FF236F092B32
:10AC400024DCA66F6EB3D4F8A430002B4BD0D4F81C
:10AC5000D030002B49D0D4F8FC30002B47D0D4F8AA
:10AC60002831002B45D0D4F85431002B43D0D4F8F0
:10AC70008031ABB1D4F8AC31002B3ED0D4F8D83110
:10AC8000002B3CD0D4F80432002B3AD02149224882
:10AC90004FF0FF3622F08EF9C4F82C62BDE8F08147
:10ACA00006262C2505FB06451C4940F6B833012233
:10ACB000C5F884300023C5E91E1385F88030C5F837
:10ACC0008C30C5F8943085F89830C5F8882085F820
:10ACD000902022F089FF6867236FC4F82C6201334B
:10ACE0002367BDE8F0814646DBE70226D9E7032665
:10ACF000D7E70426D5E70526D3E70726D1E70826B8
:10AD0000CFE70926CDE700BF20E6050028E60500CD
:10AD1000BC0A060048E10500148D002045770200BA
:10AD20006F4B1B7870B5002B58D06E4D6E4C2B7846
:10AD300033BB23786D4E002B30D06D4B6D4A012113
:10AD40000320186011700A204FF4FA724FF4C47196
:10AD500022F0EAFB4FF4FA7022F052FF4FF4FA723D
:10AD60004FF483710A2022F0DFFB2B78002B00F0D8
:10AD7000A2802378002B00F09980337843B170BD16
:10AD800023785A4E002BD8D03378002BF7D1D4E754
:10AD9000BDE870405849594822F00CB93378002B6F
:10ADA000CBD14FF4FA724FF4C4710A2022F0BCFBED
:10ADB0004FF4FA7022F024FF4FF4FA724FF48371CB
:10ADC0000A2022F0B1FB4E494C4822F0F3F84949E1
:10ADD000474B0120032208701A6070BD4FF4FA72CD
:10ADE0004FF4C4710A2022F09FFB4FF4FA7022F056
:10ADF00007FF444D4FF4FA724FF483710A2022F09A
:10AE000093FB41493D4822F0D5F82B68092B22DC01
:10AE1000AE6846B36B6B002B54D02B6E002B53D017
:10AE2000D5F88C30002B51D0D5F8B830002B4FD04E
:10AE3000D5F8E430002B4DD0D5F8103193B1D5F8CA
:10AE40003C31002B48D0D5F86831002B38D0D5F8EC
:10AE50009431002B42D02D49284822F0ABF84FF016
:10AE6000FF361AE006262C2404FB0654284AA2606A
:10AE70004FF4FA730122636107210023E360237416
:10AE8000E3616362A16184F8202084F8282022F025
:10AE9000ABFE2B68606001332B601E4A1549144BD2
:10AEA00016610120032208701A603EE71A49134810
:10AEB00022F080F861E71949104822F07BF858E742
:10AEC0000826D0E70126CEE70226CCE70326CAE70C
:10AED0000426C8E70526C6E70726C4E70926C2E711
:10AEE00008770020107700201C770020F0760020E3
:10AEF0002877002025770020E8E60500148D002043
:10AF000050E605003C7C002034E6050048E10500E1
:10AF100029860200F87D0020B8E6050090E60500CD
:10AF200038B5114C2368012B05D0022B12D00F4BE2
:10AF300000221A6038BD0E4B1B68012BF7D10D4D56
:10AF4000281D10F075F850B12B7843B9AB7833B9A0
:10AF50002368EAE7084810F06BF80028E7D1034BB4
:10AF600001221A6038BD00BF207700200C77002036
:10AF7000F47600207C8B00204877002070B50920F3
:10AF800026F042F90446032026F03EF90646322018
:10AF900022F036FE092026F037F90546032026F078
:10AFA00033F944EA060343EA050454EA000309D1ED
:10AFB0000C4B0D4902221A600C4B01200322087031
:10AFC0001A6070BD0A4B1B7843B1064A064901233B
:10AFD00013600B70054B03221A60F2E7024A1370EC
:10AFE00070BD00BF28770020257700202077002043
:10AFF0003D77002038B5344C2368012B2BD0022B31
:10B0000038D0324D00232B60314C227812B3314AB4
:10B010001278FAB1304A1278E2B9002B33D12F4BB3
:10B020001A7892B15B6883B14FF4FA7240F2BA2198
:10B030000A2022F079FA4FF4FA7022F0E1FDFA22A8
:10B0400040F217410A2022F06FFA2548FFF710F866
:10B050000023237038BD234B1B68012BD1D1224D17
:10B06000281D0FF0E5FF50B12B7843B9AB7833B909
:10B070002368C4E71D480FF0DBFF0028C1D1134D42
:10B0800001232B60C0E74FF4FA724FF4C4710A2019
:10B0900022F04AFA4FF4FA7022F0B2FD0A204FF47F
:10B0A000FA724FF4837122F03FFAFFF739FF0C4830
:10B0B00090F83432002BCDD12B68012BCAD1BDE8DA
:10B0C0003840FFF7D9BC00BF207700200C77002064
:10B0D00099630020247700202577002080740020C9
:10B0E000C4820020F47600207C8B0020487700206A
:10B0F00038B50546101E2DED028B08EE101A58DBF0
:10B100002DF00AFE32A3D3E900232DF06FFE324B5F
:10B1100000222DF0B5FC2EF019F9044607EE905AE6
:10B1200007EE104AF8EEE77AB8EEC77AB8EEC88AAA
:10B1300067EE877A87EE887AB5EEC07AF1EE10FA7C
:10B1400017EE100A2CDB2DF0F9FD244B00222DF018
:10B1500097FC2EF0FBF86342834202DC8442A8BFD6
:10B1600004461F49002C0B68B8BF6442C4F11004A8
:10B1700093FBF4F204FB12342CB1BDEC028B0133CF
:10B1800000200B6038BD002D08DB14BF4FF0FF30EE
:10B190000020BDEC028B01230B6038BD0120F8E7D5
:10B1A0002DF0CCFD0D4B00222DF068FC2EF0CEF8DA
:10B1B000D1E72DF0B1FD06A3D3E900232DF016FE53
:10B1C000064B00222DF05CFC2EF0C0F80446A5E7EB
:10B1D0009A9999999999F93F0000F83F0000E03F4A
:10B1E0003077002008B52C480FF02EF82A483D2172
:10B1F0000FF044F928480FF0A9F948BB274B01226A
:10B200001A7025485C210FF039F923480FF09EF998
:10B21000002839D1224B01221A701F485D210FF0FE
:10B220002DF91D480FF092F930BB1E4B01221A7008
:10B2300019485E210FF022F917480FF087F978B905
:10B24000194B154801221A70BDE808400FF076B876
:10B250001649174821F0AEFE104B00221A70D0E7B5
:10B260001449134821F0A6FE0F4B0B4800221A7018
:10B27000BDE808400FF062B80F490D4821F09AFE72
:10B28000084B00221A70D3E70C49094821F092FEBE
:10B29000034B00221A70C0E79C8B00200877002027
:10B2A000F07600201C7700201077002018E70500BA
:10B2B000148D002090E7050060E7050034E70500E5
:10B2C000F8B5314D31492A68C36809680069092A0F
:10B2D00025DCAE685B000133002E2AD06A6B002AA1
:10B2E00041D02A6E002A40D0D5F88C20002A3ED0CA
:10B2F000D5F8B820002A3CD0D5F8E420002A3AD06E
:10B30000D5F81021A2B1D5F83C21002A35D0D5F8C6
:10B310006821002A33D0D5F89421002A31D01C4965
:10B320001C4821F047FE1C4B4FF0FF369E60F8BDD5
:10B3300006262C2404FB06540122E160174FA3616A
:10B3400000216061A760227484F8202084F82820FE
:10B35000E161616222F048FC2B68606001332B6080
:10B360000D4B9E60F8BD0126E3E70226E1E70326C8
:10B37000DFE70426DDE70526DBE70726D9E7082611
:10B38000D7E70926D5E700BF3C7C0020387C0020A9
:10B3900048E10500148D0020F87D002029B402004A
:10B3A00070B51D4D00231A4628460521FDF786F885
:10B3B0001A4B1C68022C1FD0032C15D0012C00D076
:10B3C00070BD174B1B68012B1ED0022BF8D11548FE
:10B3D00016F0E6FE0028F3D02B682246284604210A
:10B3E000BDE87040FDF76AB805222B682846114673
:10B3F000BDE87040FDF762B82B6828460722BDE81B
:10B4000070400421FDF75AB82B6828460222BDE897
:10B4100070400421FDF752B8287C002020770020DE
:10B42000F47600207499002070B5134E134DB36864
:10B430002C2202FB03530446DB6913F0010F43691E
:10B440000FD081680E480022FDF738F8B268E36833
:10B450002C2101FB02525B00D2690133934206D0DA
:10B4600070BDD0E901210648FDF728F8EEE7BDE8F8
:10B470007040FFF795BF00BFF87D00203C7C0020A6
:10B48000287C002070B53A4816F08AFE394B1C68BB
:10B49000022C00D070BD384B0028197814BF01224F
:10B4A000002205D139B1BDE870401A70FFF778BFAE
:10B4B0009142F8D170BD314D2B68092B22DCAB686D
:10B4C000002B44D06B6B002B43D02B6E23B3D5F8ED
:10B4D0008C30002B3FD0D5F8B830002B3DD0D5F8BC
:10B4E000E430002B3BD0D5F81031A3B1D5F83C3176
:10B4F000002B36D0D5F86831002B34D0D5F89431F4
:10B50000002B32D01E491F4821F054FD4FF0FF346C
:10B510001D4BDC6070BD06242C2606FB04561B4A1E
:10B52000B2604FF4FA730122736103210023F360C8
:10B530003374F3617362B16186F8202086F82820A5
:10B5400022F052FB2B68706001332B60E0E71C4651
:10B55000E2E70124E0E70324DEE70424DCE7052436
:10B56000DAE70724D8E70824D6E70924D4E700BFA0
:10B5700074990020F4760020F17600203C7C0020B5
:10B5800048E10500148D0020F87D0020F1850200BF
:10B590002DE9F0410468022C05D0032C13D0012CB6
:10B5A00009D0BDE8F081D0E9012143693548BDE803
:10B5B000F041FCF783BF002381683248BDE8F041C9
:10B5C0001A46FCF77BBF304EC36832682F490069CA
:10B5D00009685B00092A03F1010320DCB268002A34
:10B5E00040D0726B002A3FD0326E002A3ED0D6F88F
:10B5F0008C20E2B1D6F8B820002A39D0D6F8E42061
:10B60000002A37D0D6F8102182B1D6F83C21002A82
:10B6100032D0D6F868218AB3D6F8942182B31C4977
:10B620001C4821F0C7FC4FF0FF3417E006242C25FE
:10B6300005FB04650122E960174FAB6100216861D9
:10B64000AF602A7485F8202085F82820E9616962B6
:10B6500022F0CAFA33686860013333600F4B9C6094
:10B66000BDE8F0811446E2E70124E0E70224DEE7CA
:10B670000424DCE70524DAE70724D8E70824D6E722
:10B680000924D4E7287C00203C7C0020387C002062
:10B6900048E10500148D002029B40200F87D002047
:10B6A00038B504460D4621F0E9FF05F10C0104F11F
:10B6B0000C0021F0E3FF05F1180104F1180021F05E
:10B6C000DDFF6B6A6362204638BD00BF5B4B1A8D9D
:10B6D000188C0132002112B270B582421965596589
:10B6E0009965D965196659669966D9661967596762
:10B6F000596A1A85AABF0022D2001A850A4400247A
:10B700001460546093F82A20998D1C6B9042C4BF3A
:10B71000013283F82A209A8E013212B28A429A8626
:10B72000ACBF0022D20004EB02054FF00000A8BF1E
:10B730009A86A050686093F836209142C4BF0132C7
:10B7400083F83620B3F84020198F013212B28A42B2
:10B75000A3F84020A4BF0022A3F84020DC6BB8BFB0
:10B76000D200A5180020A050686093F84220344D04
:10B770009142C4BF013283F842202B68314A002134
:10B78000092B117023DCAE68002E2AD06B6B002BC6
:10B7900043D02B6E002B42D0D5F88C30002B40D0FC
:10B7A000D5F8B830002B3ED0D5F8E430002B3CD093
:10B7B000D5F81031A3B1D5F83C31002B37D0D5F8EE
:10B7C0006831002B35D0D5F89431002B33D01E4989
:10B7D0001E4821F0EFFB1E4B4FF0FF361E6070BD80
:10B7E00006262C2404FB06541A494FF47A730122CE
:10B7F00063610023C4E90213E361636284F82830C3
:10B800002274A26184F8202022F0EEF92B68606097
:10B8100001332B600E4B1E6070BD0126E1E702264E
:10B82000DFE70326DDE70426DBE70526D9E7072661
:10B83000D7E70826D5E70926D3E700BF5C7B0020C1
:10B84000887400200860002048E10500148D002065
:10B850004476002069E4020038B59368012B00D0DB
:10B8600038BD044610460D4622F08EF90128F7D166
:10B8700029462046BDE83840FFF728BFF8B5069EA8
:10B880009DF81C50089F10B31C4632B301BB1849E9
:10B89000184821F0CBFA1849164821F0C7FA21467A
:10B8A0000A22144821F094FC1449124821F0BEFAEF
:10B8B0001048314621F096FAA5B110490D4821F003
:10B8C000B5FA39460B48BDE8F84021F02DBBF8BD6C
:10B8D0000B49084821F0AAFADDE70A49054821F09A
:10B8E000A5FAD8E7BDE8F8400749024821F062BB55
:10B8F000C8E70500148D0020D0E7050068E40500C6
:10B90000C0E70500DCE70500BC0A0600F0B52DED38
:10B91000028B3E4C9BB0054620460E46FDF71CFEB2
:10B92000B4F93400236BB4F94010E26B03EBC007A9
:10B9300003EBC00393ED007AB4F92800636A97ED36
:10B94000016A02EBC10402EBC102D2ED016AD4ED3F
:10B95000007A2F4903EBC003B8EEC66AF8EEE66A38
:10B96000B8EEC77AF8EEE77A93ED008A5B688DED62
:10B97000176A05A8CDED196A8DED167ACDED187A06
:10B9800015938DED148A21F05FFE224908A821F05D
:10B990005BFE08A90BA821F071FEB0EE480A0BA8C7
:10B9A00021F0EAFF15AC1AAF2C210DEB010021F0BC
:10B9B00095FFB4EC010A0BA821F0DEFFBC42F3D1E5
:10B9C0000EAC11AF05A9204621F058FE0BA9384650
:10B9D00021F054FE012231460192002328460297AD
:10B9E0000094FFF74BFF384621F0D4FE204621F0AB
:10B9F000D1FE0BA821F0CEFE08A821F0CBFE05A8B1
:10BA000021F0C8FE1BB0BDEC028BF0BD5C7B0020BA
:10BA1000E4E70500BC0A060038B59368012B00D0A6
:10BA200038BD044610460D4622F0AEF80028F7D186
:10BA300029462046BDE83840FFF768BF2DE9F041B0
:10BA40008AB007AC04AD06460F462046114698461C
:10BA500021F014FE109928460A2221F029FE3946C9
:10BA6000002301223046CDF8048002950094FFF7B0
:10BA700005FF284621F08EFE204621F08BFE0AB0FD
:10BA8000BDE8F0819368012B00D07047F0B5044603
:10BA900087B010460D4622F077F80128064601D0FF
:10BAA00007B0F0BD074903A8002721F0CDFD2046CF
:10BAB0003346294603AA0097FFF7C0FF03A821F0E9
:10BAC00069FEEDE7D4E70500F0B52DED028BB24C31
:10BAD000002393B02370002800F0C780AF4DB5F964
:10BAE0004C10B5F84460AA6C8BB2002903F1FF300A
:10BAF000B8BF991907B2B8BF09B280B2002FBCBF56
:10BB0000801907B202EBC70090ED006AD0ED016A20
:10BB100002EBC101981E91ED007AD1ED017A01B2DC
:10BB2000002980B2BCBF801901B202EBC101D81E4E
:10BB300037EE067A77EEA67A91ED006AD1ED016ACA
:10BB400001B2002980B2BCBF801901B202EBC10171
:10BB5000043B37EE067A77EEA67A91ED006AD1EDD6
:10BB6000016A8E4819B200299BB2BCBF9B1919B259
:10BB700002EBC102D2ED005A894E37EE067A77EE1B
:10BB8000A67A92ED016ADFED876A37EE257A77EEC5
:10BB9000867A27EE267A67EEA67A85ED147AC5EDC9
:10BBA000157AFDF781F995ED140A7F4995ED158A0F
:10BBB0008DED050A06A821F047FD7C4909A821F072
:10BBC00043FD9DED050A09A821F0D6FE784909A894
:10BBD00021F05AFE0FADB0EE480A09A821F0CCFEC4
:10BBE0000CAF06A9284621F049FD09A9384621F0E5
:10BBF00045FD0122CDE9005210461146002302976F
:10BC0000FFF73CFE384621F0C5FD284621F0C2FD75
:10BC100009A821F0BFFD06A821F0BCFD3568002D64
:10BC200000F03081B36853B12C220021301D2DF07B
:10BC30008DFF21F0D9FF33687060013B33605D4DAB
:10BC4000FFF7AEFB5C492A7801230B702370002AB2
:10BC500040F0DD8059480378002B40F0DF8000235E
:10BC60002B7013B0BDEC028BF0BD554B1B78002B35
:10BC700040F0D7804A4C2368092B2EDCA668002EA2
:10BC800000F0A980636B002B00F0DC80236E002B9A
:10BC900000F0DE80D4F88C30002B00F0DB80D4F88C
:10BCA000B830002B00F0DC80D4F8E430002B00F03A
:10BCB000D980D4F81031002B00F08C80D4F83C31BE
:10BCC000002B00F0D380D4F86831002B00F0D48032
:10BCD000D4F89431002B00F0D3803A493A4821F04F
:10BCE00069F923684FF0FF36384F092B7E602BDC53
:10BCF000A668002E34D0636B002B00F0A580236E65
:10BD0000002B00F0A380D4F88C30002B00F0A4802E
:10BD1000D4F8B830002B00F0A180D4F8E430002B28
:10BD200000F0A280D4F81031CBB1D4F83C31002B14
:10BD300000F09E80D4F86831002B00F09B80D4F88E
:10BD40009431002B00F09A801E491F484FF0FF36B7
:10BD500021F030F93E6013B0BDEC028BF0BD062639
:10BD60002C2505FB06451A4AAA6040F29E73002264
:10BD70006B610123EB602B74AB6185F82030EA61C5
:10BD80006A6285F8282021F02FFF2368686001335C
:10BD900023603E60DFE700BF247700205C7B00204B
:10BDA00088740020CDCC4C3EECE70500BC0A0600B0
:10BDB000BCE705005C60002008600020C482002011
:10BDC000347C002048E10500148D002044760020DA
:10BDD000C9BA020006262C2505FB064564232E4A17
:10BDE0006B61052340F2AA51AA60AB6100220123D6
:10BDF0002B7485F8203085F828306962EA60EA61A2
:10BE000021F0F2FE23686860013323606CE7FFF7DE
:10BE1000F1F822480378002B3FF421AFFEF75EFBD8
:10BE20001DE71F4A1F4B10681B6843610324012153
:10BE300096220523C0E90312C0E901330460FFF72D
:10BE40003FFA17E70126C6E7012689E7022687E7BA
:10BE50000226C0E70326BEE7032681E704267FE724
:10BE60000426B8E70526B6E7052679E70726B2E7F0
:10BE7000072675E7082673E70826ACE709266FE76B
:10BE80000926A8E70849094820F0D0FF29460A22D8
:10BE9000064821F045F9D2E661860200C4820020FE
:10BEA000387C0020287C0020F4E70500148D002059
:10BEB0002DE9F04396682DED028B012E93B004D04E
:10BEC00013B0BDEC028BBDE8F083054610460C466E
:10BED00021F05AFE07460028F2D1214890ED140ABD
:10BEE00090ED158A8DED050AFCF7DEFF1D4906A8C9
:10BEF00021F0AAFB1C4909A821F0A6FB9DED050A2B
:10BF000009A821F039FD194909A821F0BDFC0DF15E
:10BF10003C08B0EE480A09A821F02EFD0DF13009C9
:10BF200006A9404621F0AAFB09A9484621F0A6FB34
:10BF30003B46324621462846CDE90086CDF808909A
:10BF4000FFF79CFC484621F025FC404621F022FCEE
:10BF500009A821F01FFC06A821F01CFCB0E700BFD7
:10BF60005C7B0020B4E70500BC0A0600BCE70500C6
:10BF70002DE9F0438DB009AC06AD06460F462046CC
:10BF80001499059390469DF8549021F077FB1699EB
:10BF900028460A2221F08CFB059BCDF804904246EE
:10BFA0003946304602950094FFF768FC284621F098
:10BFB000F1FB204621F0EEFB0DB0BDE8F08300BFA1
:10BFC0002DE9F0433A2197B0074621F09FFD00226A
:10BFD00003460446394604A821F0A8FD2C2104A8F4
:10BFE00021F094FD04A905460346002207A821F08C
:10BFF0009DFDDFF89081069B6A1C04A90AA821F028
:10C0000095FD0026621CBB6839460DA821F08EFD07
:10C010004446354606E0272D04F1280406F128069B
:10C0200055D00135214607A821F034FD0028F2D073
:10C0300004F10C010AA821F02DFD0028EBD00DA978
:10C0400010A821F01BFB10A913A821F017FB159BCA
:10C05000002B5CD04FF000094C4605E0159B0134E5
:10C06000E4B29C42A14652D2494613A821F044FDB5
:10C0700030380928F2D9494613A821F03DFD03467E
:10C080002B2B494613A8E9D021F036FD03462E2B71
:10C09000494613A8E2D021F02FFD2D28DED013A8A9
:10C0A00021F078FB10A821F075FB394613A821F088
:10C0B000E5FA0022012113AB00930846CDE90122E5
:10C0C0000223FFF755FF13A821F064FB10E013AC27
:10C0D0003946204621F0D2FA012300221846CDE944
:10C0E000012200941946FFF743FF204621F052FB3E
:10C0F0000DA821F04FFB0AA821F04CFB07A821F066
:10C1000049FB04A821F046FB17B0BDE8F08313A853
:10C11000183621F03FFB464410A821F03BFB314686
:10C120000DA821F0B7FC88B105EB850508EBC50823
:10C130000DA913A8D8F8244021F0A0FA012108463F
:10C1400013AAA04713A821F025FBD1E70C493046DC
:10C1500021F0BCFC04460028E6D1394613A821F0A2
:10C160008DFA012113AB00930846CDE90144224624
:10C170000323FFF7FDFE13A821F00CFBB8E700BF77
:10C18000BC0A0600246D00202DE9F04192B006465D
:10C190000F4609A81C49CDED070ACDE904329DF8E8
:10C1A00064808DED060A21F04FFA9DED060A09A87C
:10C1B00021F0E2FB154909A821F066FB0CAC9DEDCE
:10C1C000070A09A821F0D8FB0FAD1899204621F0E5
:10C1D00055FA09A9284621F051FADDE90432394619
:10C1E0003046CDF8048002950094FFF747FB2846BF
:10C1F00021F0D0FA204621F0CDFA09A821F0CAFAA0
:10C2000012B0BDE8F08100BFBC0A0600BCE7050023
:10C2100010B557495748584C20F0CCFE574955485F
:10C2200020F0C8FE237813B16368002B76D14FF459
:10C230007A7021F0E5FC52494E4820F0BBFE23788D
:10C2400013B16368002B70D14FF47A7021F0D8FCE1
:10C250004C49484820F0AEFE4FF4FA724FF4C471D6
:10C260000A2021F061F94FF4FA7021F0C9FC4FF473
:10C27000FA724FF483710A2021F056F94FF47A7064
:10C2800021F0BEFC40493B4820F094FE237813B1D6
:10C290006368002B5BD14FF47A7021F0B1FC3B490D
:10C2A000344820F087FE237813B16368002B56D101
:10C2B0004FF47A7021F0A4FC35492E4820F07AFE24
:10C2C00023780BB163684BB94FF47A7021F098FC76
:10C2D000BDE810402F49274820F06CBE4FF4FA7299
:10C2E00040F217410A2021F01FF9FA2021F088FCC2
:10C2F0004FF4FA724FF444710A2021F015F9FA2034
:10C3000021F07EFC4FF4967240F20B210A2021F0BE
:10C310000BF94FF4FA7021F073FCD5E7C82240F214
:10C32000BA210A2021F000F981E74FF4FA7240F2B5
:10C33000BA210A2021F0F8F84FF4FA7021F060FCDD
:10C34000FA2240F217410A2021F0EEF87CE74FF480
:10C3500096724FF4DC710A2021F0E6F89BE74FF467
:10C36000FA724FF4DC610A2021F0DEF8A0E700BF8A
:10C3700014E80500148D0020807400202CE80500CE
:10C3800058E8050080E80500A8E80500DCE805009D
:10C3900010E905003CE90500F8B51C491C4820F0EF
:10C3A00009FE1C491A4820F005FE1B49184820F0D8
:10C3B0003DFD0A221E21164820F0B2FE21F014FC99
:10C3C000054621F011FC48F6B703441B9C4213D8E4
:10C3D000124F0F4E4FF47A7021F012FCA7FB04317C
:10C3E00089090A22304620F0C1FE21F0FDFB48F603
:10C3F000B703441B9C42EDD90949054820F0DAFDFA
:10C40000BDE8F8400749024820F0D4BD50E90500D6
:10C41000148D002068E90500A4E90500D34D6210E1
:10C42000D4E90500F4E905002DE9F843064606F5D0
:10C43000DC7721F0D9FB002533464FF6FE7C4FF028
:10C4400002084FF0010E1CE093F8282002B35A6A4C
:10C450005C68A0EB04094A4510D893F82090224468
:10C460005A60B9F1000F09D061459A6914BF0131D2
:10C470000121D961002A40D1C3F82CE02C33BB4202
:10C4800008D09A68DD62002AF8D0D9690029DBD08B
:10C490005A69DDE7DFF88880204F341D00250AE067
:10C4A000D4E901309847A36A022B0FD001350A2D39
:10C4B00004F12C041FD0A36A002BF7D0237B002BA0
:10C4C000EED163689847A36A022BEFD13368D3B1EA
:10C4D0006368002BEAD02C22002120462DF036FB89
:10C4E00021F082FB336820600135013B0A2D336067
:10C4F00004F12C04DFD1BDE8F88391422CBF424601
:10C500007246DA62BAE74146384620F08FFC0A22CA
:10C510002946384620F004FEC8E700BF148D0020ED
:10C52000F4E70500000000002DE9F047044686B05E
:10C530003C30FFF779FF23690025AB42256239DDE6
:10C54000DFF844924FF0000804F1140AE16851F852
:10C55000250024F059FEB0FA80F77F094AF8047BE1
:10C56000206A2CF0D9FB0246384616460F462CF0BE
:10C57000D3FB42464B462CF039FC0B46024639466B
:10C5800030462CF07DFA2CF0E1FE23690135064699
:10C59000AB42284626620EDD2CF0BEFB78A3D3E921
:10C5A00000232CF023FC41EC100B29F021FC59EC6A
:10C5B000108BCBE72E46B4F90830D4F804C003EB57
:10C5C00043070CEB870797E8070004F1300E8EE86D
:10C5D000070003ADB04285E80700626B014650D00A
:10C5E000002E43D0012A6AD00AB1022A04D10121C7
:10C5F0000022C4E90A12666204F1240207CA85E82F
:10C600000700268801331BB295E80700B342238157
:10C61000B9BF03EB43030CEB830C002323818CE8AD
:10C620000700A37AD4F8F8519E42C4BF0133A37225
:10C63000092D3ADC21F0D8FA2C2303FB0545002311
:10C640002864AB65656B75B9D4F8F861092E0ADC0E
:10C650002C2707FB064621F0C7FA326C4EF6602302
:10C66000801A984253D806B0BDE8F087002ABED0A1
:10C67000012A5BD0022ABFD10022C4E90922E2626A
:10C68000BAE7022A4ED0D4F8F881B8F1090F2CDDB0
:10C690000020C4E90962E06204F1240393E8070082
:10C6A00085E8070087E80700CCE73349334820F0E6
:10C6B000BDFB29460A22314820F032FDC2E7A26BB9
:10C6C000132A37D8D4F8F881B8F1090F37DD0020E4
:10C6D0000123C4E90A30666204F1240393E80700E9
:10C6E00085E8070087E80700ACE7019221F07CFAB3
:10C6F0002C2303FB0848B4F90830D8F840106768C9
:10C70000019A03EB4303401A07EB8307C1E7D4F810
:10C71000F861092E23DC21F067FA07FB0644A565C2
:10C720002064A0E7002E7FF462AFA5E7A26B132A76
:10C730007FF662AF0220C4E90A0261625CE721F081
:10C7400053FA2C2303FB0848B4F90830D8F84020EA
:10C75000676803EB4303801A07EB8307B8E70649D2
:10C76000064820F063FB054831460A2206B0BDE8C2
:10C77000F04720F0D5BC00BF0CEA0500148D002066
:10C78000EF39FAFE422EE63F0000F03F2DE9F0437C
:10C790002DED028B044685B0D430FFF745FEB4F989
:10C7A000A870B4F9B430D4F8B0C094EDAC7A07EB0B
:10C7B000470ED4F8A47003EB430607EB8E070CEB8F
:10C7C0008606D7ED027A96E80700B4EEE77A01AD67
:10C7D00004F52877F1EE10FA85E8070087E80700EE
:10C7E0006FD5D4F8A0120227B942C4F8B47279D038
:10C7F000D4F8A422002A40F08A800121C4E9A612BC
:10C80000C4F8947204F5257207CA85E80700B4F8E5
:10C81000AC6001331BB295E80700B342A4F8B43012
:10C82000B9BF03EB43030CEB830C0023A4F8B43033
:10C830008CE8070094F8B630D4F890529E42C4BFFA
:10C84000013384F8B630092D6CDC21F0CDF92C23AE
:10C8500003FB05450023C5F8D800C5F8F030D4F82F
:10C860009052092D28DC21F0BFF92C2303FB05454C
:10C870004EF66023D5F8D820801A98421CD99FED37
:10C88000458A05252046FCF75DF9013D38EE008A12
:10C89000F8D1DFED417AD4F8906228EE278A092E8C
:10C8A00084ED328A59DC21F09FF92C2303FB0644E6
:10C8B000C4F8D800C4F8F05005B0BDEC028BBDE858
:10C8C000F08394EDAB7AD4F8A012B1EE477AB4EECF
:10C8D000E77AF1EE10FACCBF01270027B942C4F87D
:10C8E000B47285D1D4F89082D4F8A492B8F1090F2B
:10C8F00022DD0020C4E9A579C4F89C0204F5257363
:10C9000093E8070085E8070086E80700A7E7012A03
:10C9100031D0022A7FF476AFAFBBC4E9A577C4F863
:10C920009C726FE71D491E4820F080FA29460A22B2
:10C930001B4820F0F5FB92E721F056F92C2303FB6E
:10C940000848B4F9B430D8F8D820D4F8B06003EB74
:10C950004303801A06EB8306CCE71049104820F009
:10C9600065FA0F4831460A2205B0BDEC028BBDE8DE
:10C97000F04320F0D5BBD4F8A802C4F894120222E8
:10C98000C4E9A6203EE701210022C4E9A612C4F8AA
:10C99000947237E700000000CDCC4C3E0CEA050055
:10C9A000148D0020F0B5944B2DED068B1D68012DE4
:10C9B00097B00ED0022D00F09C80032D00F019815D
:10C9C000042D00F0F080052D40F08F808B4B8C49BA
:10C9D000EBE08C4C2046FCF7BFFDB4F934C0206B73
:10C9E000B4F92870636AB4F94060E26B00EBCC01E3
:10C9F00003EBC70393ED000AD1ED009A93ED01AA72
:10CA00008DED050A00EBCC0002EBC601D1ED008AEA
:10CA100090ED019A7C4902EBC60207A892ED018ACB
:10CA200020F012FE79490AA820F00EFE0AA90DA8EE
:10CA300020F024FE9DED050A0DA820F09DFF74490D
:10CA40000DA820F021FFF8EEE99AB0EE4A0A0DA8F1
:10CA500020F092FF2C210DA820F040FFB8EEC99ADB
:10CA6000B0EE690A0DA820F087FF69490DA820F0F3
:10CA70000BFFF8EEE88AB0EE490A0DA820F07CFF23
:10CA80002C210DA820F02AFFB8EEC88AB0EE680A63
:10CA90000DA820F071FF5E490DA820F0F5FE10AC46
:10CAA000B0EE480A0DA820F067FF13AE07A9204694
:10CAB00020F0E4FD0DA9304620F0E0FD28468DE889
:10CAC000700000232A462946FEF7D8FE304620F0A3
:10CAD00061FE204620F05EFE0DA820F05BFE0AA855
